:020000040800F2
:10000000F00F002051070008532800083D070008A2
:1000100000000000000000000000000000000000E0
:10002000000000000000000000000000850700083C
:100030000000000000000000FD0800081D15000879
:100040009D0900089D0900089D0900089D090008F8
:100050009D0900089D0900089D0900089D090008E8
:100060009D0900089D0900089D0900089D090008D8
:100070009D0900089D0900089D0900089D090008C8
:100080009D0900089D0900089D0900089D090008B8
:100090009D0900089D0900089D0900089D090008A8
:1000A0009D0900089D0900089D0900089D09000898
:1000B0009D0900089D0900089D0900089D09000888
:1000C00002B4714649084900095C49008E4402BCEB
:1000D0007047C046002934D00123002210B4884262
:1000E0002CD301242407A14204D2814202D2090167
:1000F0001B01F8E7E400A14204D2814202D2490088
:100100005B00F8E7884201D3401A1A434C08A0422A
:1001100002D3001B5C0822438C08A04202D3001BC0
:100120009C082243CC08A04202D3001BDC082243D7
:10013000002803D01B0901D00909E3E7100010BC17
:10014000704701B5002000F00BF802BD0029F8D07F
:1001500003B5FFF7C1FF0EBC4243891A1847C046DA
:100160007047C0461C2101231B04984201D3000C98
:1001700010391B0A984201D3000A08391B0998421A
:1001800001D30009043902A2105C40187047C04630
:100190000403020201010101000000000000000050
:1001A000002B11D1002A0FD1002900D1002802D044
:1001B0000021C943080007B4024802A14018029078
:1001C00003BDC0469DFFFFFF03B4684601B502981A
:1001D00000F02AF8019B9E4602B00CBC7047C04656
:1001E000D0400B00D1409C46203AD34018435242A5
:1001F00063469340184370479140030090409C46EB
:10020000203A9340194352426346D3401943704702
:1002100010B5002903D1FFF7A5FF203002E0080048
:10022000FFF7A0FF10BDC046F0B587B006000F0075
:10023000059204938B4200D966E001D1824263D8D3
:1002400004990598FFF7E4FF390001903000FFF7AB
:10025000DFFF019B04991B1A1A0005980193FFF711
:10026000CBFF04000D00B94246D801D1B04243D8BB
:1002700001200021019AFFF7BFFF361BAF4102901A
:100280000391019B002B2ED0E90762080A430199D4
:100290006B088C4601240025BB4232D801D1B24202
:1002A0002FD830003900801A9941001849410019AF
:1002B000694106000F00012149428C446146002932
:1002C000EAD1029C039D30003900019AFFF788FFB4
:1002D000019AA4197D4106000F00FFF78DFF241A33
:1002E0008D41029403950C9B002B01D01E605F6032
:1002F0000298039907B0F0BD0022002302920393F5
:10030000BFE7B6197F41D6E7002300240293039488
:10031000E9E70000F7B583689C460369D40207D576
:10032000C0252D032A4203D0D407E4172C40624095
:1003300001273D00084C1E6814408D400194340094
:10034000AC433A4201D034002C431C6063461B6826
:10035000019A9847FEBDC046FFFFEFFFF8B51F4D5D
:10036000280002F0A3FC002836D01D4C200002F02B
:100370009DFC002830D0052128001A4AFFF7CAFF4B
:10038000002829DB09212000164AFFF7C3FF0028B7
:1003900022DB154E300002F078F900281CDB002526
:1003A0000127300002F071F9002815DB0F4802F038
:1003B0006CF9002810DB0E4C7D4000D00D4C210064
:1003C0000D4801F00FFF21000C4801F00BFF002148
:1003D0000B4802F0C4FCE4E70020F8BD7C300008C4
:1003E0004430000801001A00443200083C32000882
:1003F000D1330008CE330008D5330008E5330008B8
:100400008813000010B5024B1B68984710BDC0460A
:1004100000000020014B18607047C046000000201B
:100420007FB505000E0010220021684602F0FCFC9A
:100430006C460223A370044B3200290068460193E6
:1004400001F0E0FE7FBDC04605040008F7B50400DA
:100450000D001E00019201F04DFC030000F0AEFA09
:10046000054F32003B5001992800A04700F0A6FA42
:10047000385800F027FAC04608000000802102200A
:100480000A4B0905DA6B82B00A43DA63DA6B0A4079
:1004900007490192019A4A68824300204A60DA6B58
:1004A00004490A40DA6302B07047C04600100240B7
:1004B00000580140FFFFFFF710B5416807480C31B5
:1004C00083681B68002B03D09847002803DC10BD0D
:1004D00058204042FBE70020F9E7C046D42F00082F
:1004E00010B5192802D90024200010BD044B80004B
:1004F000C458200002F0DAFB0028F5D1F3E7C0462B
:10050000B032000880220D4B9200196882B00A4375
:100510001A608022196852000A4380211A60084B31
:10052000084A49051A60084BDA6B0A43DA63DB6B49
:100530000B400193019B02B07047C046002002406F
:1005400020000020006CDC020010024010B5034ABD
:1005500003480021121A02F06EF910BDEC020020CF
:10056000580000200648074A10B5121A064902F042
:1005700066F9064A06480749121A02F060F910BDEA
:100580000000002054000020343600080000002045
:10059000000000203436000870B505000C1E13D092
:1005A0008B684A680F48096802F0E7F80E486369EB
:1005B0002269E16802F0E1F80C48E16902F0DDF837
:1005C0000B48A16902F0D9F8012D05D1EFF305819F
:1005D0000848103902F0D1F82800210001F0A6F8EF
:1005E00070BDC0463B3400086B3400089B340008E3
:1005F000AB340008DA34000830BFFDE7F7B50A4B2A
:100600000A4D0600EF18CC1B2A0020000849019370
:1006100002F001FC60190021019A02F005FC38008B
:10062000083C74660830FEBD0400000000000000B5
:1006300034320008F0B5314B04005F6889B0FD0525
:10064000ED0D62B6BFF36F8F130EFF2B06D1F33B98
:100650001340082B3BD12A4802F08FF800263400C3
:10066000032D3AD1274802F088F8A369264A93421D
:1006700002D3264A934205D3254A934238D3254ACA
:10068000934235D2023B1B88FF221800DF219043A2
:10069000090288422CD11340022B29D11E4821681F
:1006A00002F06BF8276820222100684602F0B3FBB5
:1006B0006D46079B002E1DD0DA0502D1174A134361
:1006C000EB6129003800FFF767FF09B0F0BD012694
:1006D0001207C5D50C000026C2E7F8235B001049BD
:1006E0001F4200D10F492A000F48103A02F045F886
:1006F0000027D8E75B0A5B02E2E7C04600ED00E0B6
:100700001C35000848350008C00000085C2F0008B0
:10071000000000200000002060350008FF010000FC
:1007200003350008EE3400087D3500080821024A30
:1007300053698B435361704700ED00E0EFF308808D
:10074000EFF3098101B57246FFF774FF01BDC046A2
:10075000094880F3088872B608480949401880F3B0
:100760000988EFF314800221084380F31488BFF353
:100770006F8F02F07AF80000F00F0020F0020020E6
:100780000008000004207146014202D0EFF3098006
:1007900001D1EFF308808169023909780229FFD07D
:1007A00001B5724602F04FF801BDC04643B20006E3
:1007B00005D41F221A4001239340014A1360704759
:1007C00000E100E030B5FF2503220B00290040B214
:1007D0000240D20091409B012B40C9439340002826
:1007E0000ADBC0240A4A800880008018A40002594D
:1007F0000A401343035130BD0F2210400838054A08
:10080000800880008018C26911401943C161F2E775
:1008100000E100E000ED00E0FF22044B9343044AB6
:100820009360BFF34F8FBFF36F8F704700000008D6
:1008300000ED00E010B5203A1360029B01245360E4
:10084000039B06499360049BA143D36080235B0410
:10085000D361002391610265836610BD4D040008D9
:1008600070B50B4B15009860426E0A4B0E001A6073
:100870002C1C86F309880020034B9847201C00217C
:1008800000220023014C2047872800084D0400085F
:10089000BC020020180200201022014B1A61704790
:1008A00000ED00E0054B5A699B689A4205D0802311
:1008B000034A5B0551680B4353607047BC0200203C
:1008C00000ED00E010B50A4B9B6883420DD1EFF3B9
:1008D0000583002B09D08022064B520559680A4334
:1008E0005A605A6A04490A405A6201F009FA10BD76
:1008F000BC02002000ED00E0FF7FFFFF15498A6881
:1009000015481044EFF3098CF0C043464C46554659
:100910005E466746F8C072B6104F114E4A698A604B
:100920003E60104C141920680F4C2060906E00231C
:100930009366002800D162B6074C10191030F8C831
:100940009846A146AA46B346BC462438F0C88CF364
:1009500009887047BC0200203000000004ED00E070
:10096000000000086400000018020020F0B5C02458
:1009700000220326FF25A40010002F003040C000F5
:100980008740054993089B005B1819590132B94308
:100990001951202AF0D1F0BD00E100E010B5EFF3CD
:1009A0000583054A103BDB00D118496898588847F1
:1009B000FFF778FF10BDC046D0300008014800683E
:1009C000704700001802002010B5024B1B689847C2
:1009D000002010BD1C020020034B044A18600223B3
:1009E00091780B43937070471C0200200400002094
:1009F000072310B50449054A99430548521A01F0E6
:100A00007AFE002010BDC046F70F002000780020BD
:100A10002002002013B56A46064B694611CB11C26D
:100A2000054883681B68002B01D0984716BD5820E5
:100A30004042FBE734320008D42F000803000020B6
:100A40001F2B0ED8013002009A4013000549CA68D6
:100A50001A40934205D008691840C01A43425841D1
:100A6000C0B27047001802401F2201230240934089
:100A70001F2804D80020034AD36013617047162052
:100A80004042FBE700180240F8B5060000250127A8
:100A90007378AB4200D8F8BD347864192000FFF7B2
:100AA000CDFF00280ED02000FFF7DEFF074AE1004F
:100AB0008B58002B06D052181F2138000C40A04044
:100AC000516898470135EDB2E2E7C0462C0200209C
:100AD0000022052010B50C4C110020706070FFF74B
:100AE00071FE002206201100A070E070FFF76AFE80
:100AF0000C220721054802F097F900220720110077
:100B0000FFF760FE002010BD300000203400002000
:100B100010B50400FF20002C05D02000FFF722FBB9
:100B20001F23181AC0B2044B1856044BDA6F144333
:100B3000DC67FFF73BFE10BD3000002004180240C8
:100B4000024AD36F8343D3677047C04604180240FC
:100B5000020000B5080003290AD80E4BFFF7B0FACF
:100B600002090C131968914319605968914359603F
:100B700000BD19681143F7E75968114359601968B6
:100B800091431960F4E719681143196059680A43E1
:100B90005A60EDE70018024070B5FF230D00140005
:100BA000002804D0FFF7DEFA1F231B1ADBB2094A24
:100BB000D8008358AB4203D111184968A14204D030
:100BC000002B04D1155012185460002070BD102065
:100BD0004042FBE72C020020FF2310B5002804D080
:100BE000FFF7C0FA1F231B1ADBB20021024ADB0009
:100BF0009950D218516010BD2C020020C022C304AD
:100C000052031340032210B50724800803431A40FF
:100C10001B0C9C409940044892001218106EA0438F
:100C20000843106610BDC04600180240C022C3042D
:100C3000520313400322800803431A400449183228
:100C40009200505807221B0C9A401040D840704721
:100C500000180240024B18684005C00F7047C0469C
:100C6000001002400B8813B50C481B051A0D1B1809
:100C70001B0D0C2B0ED80A4C486813191A68024336
:100C800000201A600B881B051B0D1B191B680193A4
:100C9000019B16BD86204042FBE7C0460000C0FC19
:100CA000001002400B8809481B051A0D1B181B0D6C
:100CB0000C2B07D80020064B4968D3181A688A43C2
:100CC0001A60704786204042FBE7C0460000C0FC27
:100CD0000010024010B5088814000005000D082817
:100CE00016D8002801D1863810BD0138072819D838
:100CF000FFF7E6F91D20041B18201D1DFA20C00176
:100D00008023206009685B01994215D20020EBE73F
:100D10000C4BC0180005000D0C2803D80A4BC3402B
:100D2000DB0704D486204042DEE70848E8E7084BAA
:100D30001868E5E70020E3E7090B0131FFF7CAF97E
:100D40002060E3E7CC0F000011110000006CDC0212
:100D50002000002070B508884C680005E502000DF1
:100D6000A6B2ED0E01F0A6FD002812D1FF2C0FD087
:100D7000094BF21801236602B60F0136B340013B5E
:100D8000AB401168240E99430B00AC402343136021
:100D900070BD86204042FBE7001002400B880A4AE3
:100DA0001B05180D9B1810B51B0D0C2B08D8074BF5
:100DB000C01803684868984343425841013010BD49
:100DC00001F078FDF8E7C0460000C0FC00100240CA
:100DD000F8B52D4D00F066F8280001F076FD00F022
:100DE00053FC1F21294C2A4AA3682E001B051B0F08
:100DF0009B009B580B40D840136807000B401E41D6
:100E0000B04202D2300000F06DFCFFF723FF012852
:100E100008D0802322685B0013432360FFF71AFF8A
:100E20000128FBD123681B4A134023600123226E53
:100E3000134323660223226E1A42FCD0A368164A8B
:100E40001340A360FFF706FF012808D08023226823
:100E50005B0013432360FFF7FDFE0128FBD107224F
:100E6000A3689343A3603823A2681A42FCD1B74217
:100E700002D3300000F036FC084B094A1D60A3681D
:100E800000201340A360F8BD006CDC02001002409B
:100E900070330008FFC7FFFFFFF0FFFF20000020B6
:100EA000FF8FFFFF8021064B4905DA6B82B00A43B2
:100EB000DA63DB6B0B400193019B02B07047C046C5
:100EC0000010024010B5084801F0F0FE002808D0DC
:100ED000064C2000FFF780FD2000FFF79BFA002062
:100EE00010BD13204042FBE7B4300008F10E0008AB
:100EF00070B50400074D0A2804D1AB680D21280005
:100F00005B689847AB6828005B68E1B298472000AF
:100F100070BDC046B4300008F7B547680600B86831
:100F20001D0001920C0001F0C0FC8023019A00908A
:100F30009B039A4215D12000BD68FFF777FE8542DA
:100F40000DD12100280001F0B0FC0400FFF7F8FDEE
:100F50002000FFF741FE00212000FFF7F9FD0020EF
:100F6000FEBD8023019ADB039A4223D08023DB0459
:100F70009D421BD0C023DB049D4219D080239B04DB
:100F80009D421AD1022532000E490098FFF704FE57
:100F9000002814D12000B968FFF730FE009829001E
:100FA000FFF7D6FD0098FFF7B3FDD8E70125EAE784
:100FB0000325E8E786204042D2E71620FBE7102011
:100FC000F9E7C046552A000837B503000D1E04682E
:100FD00002D11620404218E0406819698368DB6836
:100FE000002B13D001AA984700280EDB2368084A7B
:100FF000680813402360019B2900C018FFF76AF8B6
:101000000F28E6D980B2E06000203EBD5820E1E71D
:10101000FF7FFFFFF7B5020013690C001D680B7915
:101020004068012B13D0991E4E42714189020091F4
:101030006679022E0ED84A4F7600F75BA679022E0B
:101040000BD0042E2ED05E1EB3411B0308E0C0213E
:10105000C900ECE78027BF01F0E75E4273411B0740
:10106000E6790196012E20D00026B4460068A542FC
:101070001ED104683B4E0099344021430B4303606A
:10108000436839490B403B4343605368374819680C
:101090008B680340604603438B6029685068FFF704
:1010A00093FFFEBD80235B01DAE7C026B600DCE7D4
:1010B000C0210668C9000E400099B14205D00668FB
:1010C0002B490E4000990E430660C0265168B601B8
:1010D0000868416831408F4204D04168224E314057
:1010E000394341605168234E0868016831408B42A2
:1010F00004D00168204E31400B430360C020536888
:10110000800019688B6803409C4505D08B681748A0
:101110000340604603438B6001985368033846429E
:1011200070411B6899684904C90F884207D001992A
:10113000032911D180219868C90101439960216870
:101140002B6800209942ACD05068FFF73DFF002883
:10115000A7D123682B60A4E7996808480140EDE710
:10116000C8330008FFE9FFEFFFCFFFFFFFFCFFFFE1
:10117000FFF9FFFF00100010FFEFFFEFFFBFFFFFC1
:10118000F7B5446806006068216983681B68002B16
:1011900000D1A0E09847002800DA9BE00021606AB7
:1011A00001AA01F070FC002800DA93E0019B002204
:1011B0001979186801F07AFC002800DA8AE0012227
:1011C000756833692C681F68236893432360A86897
:1011D00001F06CFD002800D17FE0A868E968836811
:1011E000DB68002B00D09847EFF31082012383F3D4
:1011F000108821680B330B43236082F31088390079
:101200003000FFF707FF002802D01620404261E0BF
:101210002B7E002B03D00823A2681343A3606B7EB0
:10122000002B04D0802362681B0213436360AB7EF3
:10123000002B04D0802362685B0213436360EB7E63
:10124000002B04D0802362689B02134363602B7FD2
:10125000002B28D0224B9C4208D0224B9C4205D028
:10126000214B9C4202D0214B9C42CED173681A681C
:1012700080239168DB010B43936022686B7F1C49DC
:101280005B050A40134323602268AB7F19491B04A6
:101290000A4013432360EB7F002B04D08023A26815
:1012A0001B021343A3600135EB7F002B04D0802386
:1012B00022689B05134323600123226813432360A4
:1012C00080239B03E2691A42FCD08023DB03E2699E
:1012D0001A42FCD0FEBD582098E7132096E7C0467E
:1012E000003801400044004000480040004C0040ED
:1012F000FFFF1FFCFFFFE0FFF0B5436885B01C68EF
:10130000036906001B680D0003930B79012B1DD0A8
:101310009A1E51424A41920202926A790192022A2D
:1013200017D80199304A4800825AAF79022F13D05A
:10133000042F02D00020834218D080204001D91E03
:1013400001290FD88620404205B0F0BDC022D2004E
:10135000E2E780229201E8E70020002BEFD1802015
:10136000400503E0002B01D0042FEBD080235B016C
:101370009C460023624509D0C0239B019C46022362
:10138000624503D0013B002A00D00233019A9A4201
:10139000D8D1029901F002FC8742D3D1EB79002B1E
:1013A0000DD0012B1CD1114B9C4208D0104B9C42FC
:1013B00005D0104B9C4202D00F4B9C42C2D101275A
:1013C00023682900BB4330002360FFF723FE002879
:1013D000B8D123681F43039B276006CD06C3B3E73C
:1013E000032BE0D0AEE7C046C83300080038014008
:1013F0000044004000480040004C004070B50369C4
:10140000C0221B680C001B68D2000B60802143685F
:1014100005001B68C9001B68134002228B4204D0E0
:101420001C4A9B185A425341DAB2C02180202271D3
:101430006B6889011B6800225B6840010B40834296
:1014400006D002328B4203D0013A002B00D0023288
:1014500062716B681B6818681968C023DB0019404B
:101460000D4B184001F09AFBC022A0716B689200EE
:101470001B689B681340094A9B185A425341DBB2D0
:10148000E3716A6812689268520400D50323002051
:10149000E37170BD00FAFFFF0010001000FDFFFFB8
:1014A00030B50C490C4A8C6812680D688B68002CAA
:1014B00000D11400002B00D113000848ED0301D423
:1014C0009C4203D20468A41804600968006880186C
:1014D000C01A30BD10E000E0B8020020AC020020CD
:1014E000094A0020136A1B021B0A13629622074B4B
:1014F00052011A60064B074A1860074B5A600722D0
:1015000098601A607047C04600ED00E0B802002005
:10151000AC020020BF12000010E000E070B5FFF741
:10152000BFFF0C4B0C4A186811680C4C4018106037
:101530009621002225681A604901401BFEF7CAFD6A
:1015400096235B0143435B19236000F0C5FDFFF761
:10155000A9F970BDAC020020B4020020B002002046
:10156000F0B5334D334E85B0002953D0431C08D11C
:1015700001222B6893432B60FF231B06336005B0C9
:10158000F0BD336801930027012848DCEFF3108396
:10159000039372B6FFF784FF0022AB680293264BD9
:1015A0001C68264B04191A60254B1B680093E01A2F
:1015B00090423ADB96235B015F43224AC01919002F
:1015C0008018FEF787FD96235B015843009B1B1B89
:1015D00018188023DB00984200D218001A4B98425A
:1015E00000D91800002330600138A9686860AB603A
:1015F000029B02985A1AA318884202D2019B9B1898
:101600001B190D4A1360039B002BB8D162B6BFF3C0
:101610006F8FB4E733680193431CB4D10B480C4B74
:10162000984200DD1800471EB0E78020C000D9E7CF
:1016300010E000E0B8020020B4020020AC0200205C
:10164000B0020020BF12000080E8FF00A60D0000DD
:10165000A70D000070B5EFF3108572B6084A094B6C
:1016600014681B68E41AFFF71BFF0019002D02D154
:1016700062B6BFF36F8F96214901FEF72BFD70BD57
:10168000B4020020B00200200720382210B5124B0F
:1016900019689C68890801400131144207D11B6810
:1016A000DB0A03400D48D840FEF714FD10BD9868D2
:1016B000104008280BD098681040202809D09B685B
:1016C00000201340182BEFD1FA20C001ECE70448AA
:1016D000EAE780200002E7E700100240006CDC022D
:1016E00000366E010E4B411E020010B501209942DA
:1016F00014D80C4B072493429B410B495B420A6868
:101700000020A2431A430A600A6822409A4205D088
:1017100008682040C01A431E9841C0B210BDC046A0
:10172000FF6BDC0200366E010020024070B5EFF363
:10173000108572B6064B9C6801F0C8FA002D02D1E4
:1017400062B6BFF36F8F2000FFF7BCF870BDC046D4
:10175000BC020020F8B501270A4E83009D590130D4
:1017600084003359AB4200D8F8BD6868002806D021
:10177000037E3B4201D101F080FA0835F1E72B6886
:101780009847FAE7B0330008012270B5234B86B0C2
:1017900003201A70FFF7DEFF00F01CFD0420FFF7A6
:1017A000D9FF1F4C26001F4DAC420ED300F0E6F9C6
:1017B000AE4220D300F0F2F9FEF7D0FD01211A4A23
:1017C00093898B43938106B070BD636A0593236A46
:1017D0000493E3690393A369029363690193236903
:1017E0000093E368A2686168206800F0ADF82368A0
:1017F0005C653034D7E7B26AF36A511C01D1591CD9
:1018000005D011003068194303D101F0BEFA30361B
:10181000CEE70649183000F0CFFBF8E7E8020020D9
:10182000D0310008D0310008C8000020452D000844
:1018300070B570260125040046430102114880223C
:101840000918002086B004950E35039505356543CB
:101850000D4B0590029001900C48F6182D180C4B7A
:1018600030000095520000F06FF80422337C2C7495
:10187000934333740134074BE402E418EE606C6068
:1018800006B070BDF00A002058000020BC02002005
:10189000D32C0008F0020020F0B5002087B0FFF73D
:1018A00059FF204B83F308881F49204B0A6A002503
:1018B0001A40C0231B0413430B62FEF737FFFEF7E9
:1018C000EBFF1B4800F07AF8FEF71CFE0120FFF743
:1018D00041FF0220FFF73EFF00F088F9154C164B40
:1018E00080225C61154B164E059301231549049324
:1018F000D20033002000039502950195009500F079
:1019000023F804220700237C20009343237401F072
:10191000FAF92800FFF78CFF320039002000FEF7AB
:101920009FFFC046F00A002000ED00E0FFFF00FF2F
:1019300038010020C8000020BC020020DD3500086E
:1019400089170008F00B0020F0B587B0059303005D
:1019500058338365C365109B0727838104230025C3
:101960000732BA430374D2190F9BBA4383738B189F
:101970000E0085601900C5738561C561040004937C
:10198000FEF73CFE049BC019B8431F1A0E9B3A0099
:1019900002930D9B310001930C9B20000093059B4B
:1019A000FEF748FF044B65659B68AB4200D01B6E99
:1019B0003800236607B0F0BDBC0200200123037489
:1019C000838100230366014B98607047BC020020AE
:1019D0000B21084A49429368D966986680230649D4
:1019E0005B05486803434B6062B6BFF36F8F936833
:1019F000D86E7047BC02002000ED00E0102370B5E7
:101A0000C356027C002B31DBD3062FD180235B42EF
:101A100013431A4C0374A3691949E2698B4207D135
:101A2000016042601060E0610FE09A42F8D01B68EC
:101A3000002BF5D00E260E259E574557AE42F4DDFD
:101A40005A680360426010605860A5698D4201D0F9
:101A5000002D00D1E568A3681A7CD20607D1DA8987
:101A60007F2A04D9AA69002A01D1636170BDAB4203
:101A700002D0280000F008FA6561F7E7BC020020F8
:101A8000D4020020102270B582560500037C002A83
:101A900004DA7F221340037401F022F90D4E0E4A3E
:101AA000B469B368944201D0002C00D1F468AB4211
:101AB00008D01A7CD20605D1DA897F2A02D9A26918
:101AC000002A05D0A34202D0200000F0DDF9230057
:101AD000736170BDBC020020D402002010B5002844
:101AE0000AD1EFF30580002807D1064B5A699B689D
:101AF0009A4202D0FFF76CFF10BD62B6BFF36F8F42
:101B0000FAE7C046BC02002070B51A4CA168E36930
:101B10000A68CB1A581E834149685B420A605160CB
:101B20001340E169A268002B05D1134B516013608B
:101B30000A60E2610AE00E250E205D5710568542CC
:101B400013DD5968136051600A605A60A5690A4B39
:101B50009D4201D0002D00D1E568A3689D4202D0CE
:101B6000280000F091F9656170BD8B42DDD01B68E3
:101B7000D9E7C046BC020020D4020020EFF3108158
:101B800072B6054B9A68D37B013BD373002902D10F
:101B900062B6BFF36F8F7047BC02002070B5EFF3E1
:101BA000108672B60F4DAB68DA7B0132DA73AC691E
:101BB0000D4A944201D0002C00D1EC681A7CD20668
:101BC00005D1DA897F2A02D9A269002A05D09C4270
:101BD00002D0200000F058F9230030006B61FFF7BD
:101BE0007DFF70BDBC020020D4020020024B034ADE
:101BF0009A61DA617047C046BC020020D40200201E
:101C000070B5EFF3108572B61B4CA168E3690A68E2
:101C1000CB1A581E834149685B420A6051601340E9
:101C2000E169A268002B05D1144B516013600A6072
:101C3000E2610AE00E260E209E571056864216DDFF
:101C40005968136051600A605A60A6690B4B9E4246
:101C500001D0002E00D1E668A3689E4202D0300079
:101C600000F012F928006661FFF7B2FE70BD8B42EA
:101C7000DAD01B68D6E7C046BC020020D4020020A0
:101C8000F8B5030007000C000B4303D1FFF7B8FFC2
:101C90000020F8BDEFF3108672B6134D134BA86801
:101CA0001860FFF7EFFEA86823003A0010491830CB
:101CB00000F082F90423AA680400117C30000B4371
:101CC0001374FFF785FEAB689A6A002AE0D1802280
:101CD000DB6A12069342DBD101F099F8201AC34364
:101CE000DB171840D5E7C046BC020020DC0200200C
:101CF000452D0008014B98687047C046BC02002083
:101D0000F7B5838904000193EFF31083009372B653
:101D10000823027C1A4206D0009B002B02D162B637
:101D2000BFF36F8FF7BD1900114348B2002857DB8E
:101D30002174A368002B02D0200000F0D9FF2000FE
:101D40002600183001F03DF85836A56DAE4201D09E
:101D5000002D4DD1304F0025BB689C4204D1EFF3DC
:101D600005856A1E9541EDB2BE692C4A964201D0A6
:101D7000002E00D1FE68B34202D0300000F084F89B
:101D800020007E6100F07CFD002D02D02448FFF78A
:101D900015FEBB689C4238D1EFF30583002B34D18C
:101DA000A389DB070FD5009B002B02D162B6BFF3DE
:101DB0006F8F62B6BFF36F8F0423181C02DFEFF33F
:101DC0001083009372B60098FFF702FE019BDB07B9
:101DD000A8D562B6BFF36F8F0423181C02DFA1E7FA
:101DE0007F210A4013432000237400F079FFA0E70D
:101DF000280000F07DFF2800183000F0E2FF0023EB
:101E00002800EB66FFF7FAFD9FE7009B002BDDD172
:101E100062B6BFF36F8FD9E7BC020020D402002066
:101E20003801002010B5047C1F21220003000A4065
:101E300000200C4211D1094910008B420DD00849F5
:101E40000868002809D0D9897F2905D80E2159565C
:101E5000044B1B68994200DA100010BD58000020A6
:101E600024000020E00200200121044B044AC01A93
:101E7000044BC0104343D1547047C046A801002012
:101E8000E9020020ABAAAAAA70B518250B4B1E7C4C
:101E9000FFF7C8FF75430A4B0400ED18280000F057
:101EA00090FF0022074B9A55944205D0621E2800ED
:101EB0000549D31700F080F870BDC046BC02002071
:101EC000A8010020E9020020691E000870B5EFF3A8
:101ED000108572B6104A114B94681868A04207D159
:101EE000FFF7D2FF002D02D162B6BFF36F8F70BD36
:101EF00000211960127C0A4B9B5C8B42F2D02000BF
:101F0000FFF790FF0028EDD0237CDB0601D1FFF71F
:101F1000FBFD2000E4E7C046BC020020DC020020FC
:101F2000E9020020024B1868984200D10020704757
:101F30002800002070B50600FFF7F4FF00280ED03F
:101F4000026943693400F517121BAB41002B06DC14
:101F500001D1002A03DBD843C017104070BD0148EF
:101F6000FCE7C046FFFFFF7F002010B5034B1B6856
:101F7000834201D1FFF76EFB10BDC046E402002092
:101F800030B500280ED00B4B5B6898420AD0016830
:101F9000002907D00A694B690469456912196B4128
:101FA0000A614B610368426813605A600023036052
:101FB000436030BD28000020F0B5040015001E006D
:101FC00085B0531C02D1731C00D17CE0A160EFF3FB
:101FD0001083039372B6002E26DBFFF7C5FF0021A6
:101FE0000090012040197141009AD31712184B41FB
:101FF0003649226163610868496812184B411E0026
:10200000150001230293FFF78DFF0700304B9C461C
:102010005B680193002F1DD163462360019B6360C1
:102020001C6063465C6027E0284B186859680222F0
:102030005242D317121A8B41521BB3411100002B8D
:1020400004DC01D1002A01D1012100236361216157
:102050000023D7E73869796922696369994202DC0C
:1020600028D1904226D9801A99417B6838617961DC
:10207000636027601C607C60FFF754FF84420FD1CF
:10208000144B1B68002B0BD1029B002B02D1FFF7D6
:102090006BFF00900098FFF74DFF0021FFF760FAFB
:1020A000039B002B02D162B6BFF36F8F2800310073
:1020B00005B0F0BD121A8B4122616361019B9F4202
:1020C000AAD03F68A6E700250026EFE7C001002060
:1020D00028000020E4020020F0B5050089B0EFF3ED
:1020E000108672B62E4B03961D60FFF71BFF2D491D
:1020F00004000A684B68E81704920593002C10D07E
:102100002669676900950190874202DC24D1AE42BE
:1021100022D932003B00009E019F921BBB412261ED
:1021200063612A00049C059D030012196B41002481
:102130000A604B601A4B20001C60FFF7FBFE210079
:10214000FFF70EFA039BA34202D162B6BFF36F8F73
:10215000FFF7BCFE09B0F0BDF31706960793069A89
:10216000079B0498059980185941002300220D4DC2
:1021700022616361286069602000FFF701FF039B13
:10218000002B02D162B6BFF36F8F2000A36898477F
:10219000EFF3108372B60393014B1D68AD1BA3E7E9
:1021A000E4020020C001002010B5EFF3108472B6E5
:1021B000FFF7DAFE02000649C3170868496880186D
:1021C0005941002C02D162B6BFF36F8F10BDC046DB
:1021D000C001002010B5024800F0CFFA10BDC04683
:1021E000E23500080FB407B5054B04AA02CA186807
:1021F000019200F007F803B008BC04B01847C046CD
:1022000018330008F0B5436891B0019006938378C5
:10221000170000269B0700D524E20126764257E0EE
:102220004D788B1C0993252D00D124E20022042136
:10223000099B1400009205920A3209931F2C1FD8A3
:102240002800203810281DD8FDF73AFF0E1C1C1856
:102250001C1C1C0F1C1C1C0C1C161C1C0900012027
:10226000044302E0022004430C430998013305783B
:10227000002DE2D1099337E00820F1E71020EFE7C5
:102280007F2C28D82800303809280DD840252C422A
:1022900004D0009D554328180090E6E7059D55435E
:1022A000281805902020DBE72A2D0CD101CF6506E8
:1022B000F2D4002803DB202505902C43D5E74042CB
:1022C00005902820CCE72E2D05D140200442C7D010
:1022D000300011B0F0BD6C2D2CD026D8682D31D037
:1022E0006A2D32D04C2D30D0009B002B03DA4023D6
:1022F0009C430023009320232B431A00653A022AB3
:1023000001D9612B24D10722FB1D934308331F0001
:10231000B84B00920493240752D53400009B9D19BA
:10232000AC424FD1059B009A61E1742D9DD07A2D6E
:102330009BD0D9E78020044200D191E78025AD00F1
:102340002C438DE780204000F5E7A020800087E740
:1023500028006338122800D9E2E0FDF7B1FE0A43F5
:10236000E1E1E1E143E1E1E1E1E1F2DCE1E111E1BF
:10237000A300012302CF0AAA117000930492CAE7B6
:1023800008CF0493002B01D19B4B0493630602D426
:1023900001235B4200930099049800F04DFD0090EA
:1023A000B9E720200199069B9847002813DB013CE0
:1023B000009BA342F5D3059B05949E19361BACE701
:1023C000059CF5E7049B01999B1B185D069B9847AC
:1023D00001340028A4DA019B9A7804231343019A5C
:1023E00093701AE723063FD5A30538D50722073790
:1023F00097430CCF02920393102322009A43039B2E
:102400000892002B39DA0299039A00244B42944136
:10241000029303948023089ADB0013439BB2089332
:102420000AAC0A2302980399220000F010FD031B56
:102430000793079B089C049323005B0600D4A1E04C
:102440000123079A9C43009B934200DC9AE0002DF5
:1024500000D095E01123089C9C43009B1AE008CF14
:102460000293DB170393C7E708CFE205F8D5A2056F
:1024700001D55BB2F4E71BB2F2E7029B039A134368
:10248000CED16306CCD5009B002BC9D111339C4320
:10249000009B07930493594B23405A1E9341049A7F
:1024A000D31825E010239C43063B9C468023220042
:1024B0001A4004921C424AD021008133FF33194054
:1024C0001C4242D00722FB1D93431F0003CB083759
:1024D00003000B434DD1220016339A430892630642
:1024E0004AD5009B002B47D117339C43009B079391
:1024F0000493230761D4E3070BD5079B049A009349
:10250000059B934205DD9B1A079A9B180093059B38
:102510000493049B48E0102378259C461C43C5E7A0
:10252000782B04D110225B1B1A439446BEE725206A
:102530000199069B9847002800DA4CE70236E8B27A
:102540009AE0082300259C46B0E701CFC0E780222F
:10255000210008CF5200180011401442B8D0802248
:1025600021009200114098B21442B1D00499D8B21F
:10257000AEE706239C4308940AAC6346220054E766
:10258000009B0493E30686D52B005A1E9341049AC0
:102590009B180133ACE720200199069B984700283F
:1025A00000DA18E7089B01330893089A059B9342C9
:1025B000F1DC049B0492F61AB618E30628D5302005
:1025C0000199069B9847002800DA04E7002D17D1EF
:1025D00001363400009B079AF3181B1B9A4223DB39
:1025E0001500002D28D1079B049A1C19059B260075
:1025F0009D1A32E0243600081D360008060400004B
:102600000236E8B20199069B98470028E1DAE2E633
:102610001C4B1C42DDD02B20A30700D40B386405D3
:1026200000D52D200136EDE730200199069B0134BD
:1026300098470028CEDACEE60AAB013DE85C019966
:10264000069B98470028CCDAC5E620200199069B16
:1026500001369847002800DABDE663199B1B002B62
:10266000F3DC09990878002800D131E6252800D14B
:10267000D6E54B1C099301360199069B9847002823
:10268000EFDAA8E60604000070470300012110B548
:102690001B790068994083685B69984710BDC90041
:1026A0004018408840087047F8B50D000400FFF757
:1026B000F6FFFDF757FD1F21091A8A00A218EB004B
:1026C00010691F1D0633E719E318AEB2002808D1C0
:1026D00001308840E1680143E16015613E801E8061
:1026E000F8BDC1000431625A3A80D200A2181880A5
:1026F000D6806652F4E70723F7B50027043ACC1DCD
:1027000089189C4399430E1BF6080460A660E76095
:10271000300000912425FDF725FD20222D1A121AE4
:10272000200039009200103000F07EFB0122AD0045
:102730000735ED08A9B24B0013436380731BEA0011
:102740009BB20193A01803000198278040008446A3
:10275000180063464380A1520122009B0199F600B4
:102760005F801980A61973882900134373802000A5
:10277000FFF79AFFF7BD002070470FB407B504A913
:1027800001C90191FDF74CFE03B008BC04B0184725
:102790007047F0B5012685B0302402934368144099
:1027A00058683300019494098B4034408C4045684C
:1027B00002369D432C43446084680327A4461C00D2
:1027C0008C406643F5430395D5093D4065432F0092
:1027D0006546B5432F4387600327520A3A40624358
:1027E000C568B5432A43C260019A202A0CD1072943
:1027F00015D823008B408B400F215943026A8A432E
:1028000002994B4313430362019B02681B095C431B
:10281000039B1A4014430460002005B0F0BD0F2153
:102820001B0A5B435B435943426A8A4302994B4309
:102830001A434262E8E710B500F0F6FA10BD10B591
:1028400000F0E9FA10BD10B501000068FDF7A4FE24
:1028500010BD10B5FDF7D0FEFEF724F810BD10B581
:1028600000210120FDF798FE10BD10B5FDF7D4FF43
:10287000FDF76CFEFDF776FEFEF778F8FFF70CF833
:10288000862040427047002802D162B6BFF36F8FA6
:102890007047BFF34F8F30BF62B6BFF36F8F704783
:1028A00010B5FEF791F8002010BD1F23012019403C
:1028B00088407047082805D8CD235B00C34000201E
:1028C000DB0701D4862040427047704743680020F0
:1028D0005B681B690B60704743685B6858694240DE
:1028E00011404140596100207047436800205B68F7
:1028F00099617047436800205B689962704743683C
:1029000000205B685A6951405961704730B50369CE
:102910000024986800280FD1002A1BD116204042BD
:1029200030BD2060D868814210D1DC600EE00568BF
:102930000400002DF0D028008842F8D10868002C4F
:10294000EFD1DC689860A14200D1D8600020086017
:10295000824206D09A680A60DA689960002A00D13B
:10296000D9600020DCE71300F7B580221F00920237
:1029700017400C00019713424DD09A0744D55A07CF
:1029800065D55022D90641D5802189000A43C0254A
:1029900019008026ED002940F600B1424BD0A94233
:1029A00045D08025AD00A94247D0C0211E00890234
:1029B0000E40056900960B4214D06E683100E1406C
:1029C0008C46012167460F4202D1A1403143696024
:1029D0000199002906D0190331D50123A34041688C
:1029E00049688B6100232100FFF7D3FE009B002B79
:1029F00008D16B6801221900E140114202D0A240C7
:102A000093436B600020FEBD1022BBE79906BED544
:102A10008021C900BAE73022D903B8D5DA0603D439
:102A20009A06D20F9202B2E780229200AFE7C0214D
:102A300049000A43B9E78021FAE78021F9E75B03FF
:102A4000D0D50123A340416849688B62CAE786203C
:102A50004042D8E770B50B690E009968050000295F
:102A600002D00C68002900D170BD8B681A002A4082
:102A70002B4202D030004B689847231E00D02368B9
:102A800021001C00EEE730B5036813600579046887
:102A9000ED006419A34202D30220404230BD083346
:102AA000DC1E24788C42F0D10020F7E7F7B5040053
:102AB0000025C90043180193019B9C4201D10020CD
:102AC000FEBD102327681F4222D1202563681D43C5
:102AD0001F23780A1840FDF703FD061E24D0FB05CE
:102AE0001A0F1F231F406B46009219782A003B00E3
:102AF000FFF74FFE0028E3DB112F07D17368009921
:102B00005A6801238B4029050CD593610834D3E71B
:102B10001F233B40102B03D0112BD9D16568D7E779
:102B20003025D5E79362F1E713204042C8E74068BB
:102B3000CB0300681B0D1B181F2001401E38884066
:102B40001B680340591E8B41002013707047426878
:102B5000CB0312681B0D9B181F2211401E3A8A409E
:102B6000186802431A600020704742681F20CB0398
:102B700001401E38884012681B0D9B181A6882435A
:102B80001A600020704770B50D000400FFF7DFFFEA
:102B900029002000FFF7E9FF002070BD802203001C
:102BA00052010800934207D080225205934207D178
:102BB0004342584101307047434258410330FAE7DD
:102BC000434258410230F6E7012143681A68D06950
:102BD000D36900070B408B40D169C00F1843042311
:102BE000890700D51843D169194201D02023184321
:102BF0008023D1695B00194202D008211362084387
:102C0000C30701D508231362830701D5012313628B
:102C1000430701D502231362830601D504231362FF
:102C20007047802210B543681B68D8691042FCD0F9
:102C3000EFF3108072B6DC69144205D10028F4D19C
:102C400062B6BFF36F8FF0E79962002800D010BD25
:102C500062B6BFF36F8FFAE7082243681B68D86932
:102C6000104200D01A62DA69920603D500205B6A2E
:102C70000B70704701204042FBE710B54369040028
:102C8000002B07D100230122E168487802434A70F3
:102C9000584210BD98470028F4D0C1174318E26885
:102CA0004B40FF2B00DDFF231370ECE7002808D01A
:102CB000C36800205A78D20703D518784342584198
:102CC000C0B27047EFF3108372B6FEE710B5FFF79E
:102CD000F9FF10B5EFF3108372B6FFF7DAFDF9E7ED
:102CE0000368426813605A600023036043607047C2
:102CF00010B50400FFF7F4FF0222237C93432374F2
:102D00000023A36010BD10B5EFF3108472B6FEF778
:102D100075FE002C02D162B6BFF36F8F10BD282361
:102D200010B5027C04001A420BD18368002B01D03D
:102D3000FFF7DEFF0422237C200093432374FEF779
:102D40005DFE10BD10B5EFF3108472B61838FFF7B2
:102D5000E6FF002C02D162B6BFF36F8F10BD70B5D5
:102D600005000C00FEF78CFF013501D1631C0AD071
:102D70000200C31700210920801859410A220023AC
:102D8000FDF70EFA70BD2000FCE770B50400EFF30C
:102D9000108572B60426037C33420CD0183000F044
:102DA00010F8237C2000B3432374FEF727FE28008D
:102DB000FEF794FE70BD002DFCD162B6BFF36F8F9D
:102DC000F8E770B50400EFF3108572B60368002BC6
:102DD0001AD0FFF7A7F806002000FFF7D1F88023EC
:102DE00000221B0622616361A64206D1FFF7BCF8F0
:102DF000FFF7A0F80021FEF7B3FB0020002D02D161
:102E000062B6BFF36F8F70BD16204042F6E710B573
:102E1000FFF7CAF910BD002310B59A4200D110BDCA
:102E2000CC5CC4540133F8E703008218934200D10C
:102E3000704719700133F9E7030041188B4202D043
:102E40001A78002A01D1181A70470133F6E7F0B555
:102E50000D003721C91A8FB0C9B20D911F2104008E
:102E60000B400C930C99E3B2082955D0102900D1DE
:102E700064E0E90760080843690806900791A00824
:102E8000A9070843A90808900991089E099F069878
:102E90000799801979410E07B446060900966646DF
:102EA000009F37430E0900970196009E019F8019ED
:102EB00079410E06B4466746060A3E4302960E0A5C
:102EC0000396029E039F801979410E04B44667461B
:102ED000060C3E4304960E0C0596049E059F801931
:102EE000794100260A910B960A9E0B9F8019794121
:102EF0004E07CD080521C4083443614349005B1ADD
:102F0000DBB2092B12D9012000210A3B24184D41C4
:102F1000DBB21DE00200A5E707210B4069078C46E4
:102F20006646E008E908064334000D0030331370AC
:102F30002300501C2B43EDD10FB0F0BD0F210B40EF
:102F400029078C46664620092909064334000D00EE
:0C2F5000092BEBD90D99CB18DBB2E7E799
:082F5C00CCD2FF7F0100000050
:102F640000000000D42F00087D04000800000000C9
:102F740000000000F02F0008000000007C30000872
:102F84000000000044300008000000002830000861
:102F94000000000098300008000000000C30000819
:102FA4000000000060300008D10A000800000000A2
:102FB40000000000B4300008C50E00080000000046
:102FC400E114000800000000F109000800000000FE
:102FD400AF35000800000000043200084C00002057
:102FE40000000000D10D000800000000BC350008FE
:102FF4001C330008F43100084E00002000000000DB
:103004000000000000000000F53300084C32000806
:10301400D031000840000020C8010020B904000895
:10302400000000000334000860320008D0310008BA
:1030340042000020D8010020B9040008000000006C
:103044001134000874320008D03100084400002014
:10305400E8010020B9040008000000001F34000843
:1030640088320008D031000846000020F801002012
:10307400B9040008000000002D3400089C32000848
:10308400D03100084800002008020020B9040008DC
:10309400000000009135000800000000000000005E
:1030A4004A00002000000000150A0008000000008B
:1030B400CD350008203300082032000850000020DD
:0C30C40014000020811100080000000032
:1030D000000000005F280008000000005F280008D2
:1030E000000000005F280008000000005F280008C2
:1030F000000000005F28000830360008890A000838
:103100002E360008890A00082C360008890A0008B3
:10311000000000005F280008000000005F28000891
:10312000000000005F280008000000005F28000881
:10313000000000005F280008000000005F28000871
:10314000000000005F280008000000005F28000861
:10315000000000005F280008000000005F28000851
:10316000000000005F280008000000005F28000841
:10317000000000005F280008000000005F28000831
:10318000000000005F280008000000005F28000821
:10319000000000005F280008000000005F28000811
:1031A000000000005F280008000000005F28000801
:1031B000000000005F280008000000005F280008F1
:1031C000000000005F280008000000005F280008E1
:1031D00067290008CD280008D9280008EB28000836
:1031E000F5280008FF280008190F00080D2900081D
:0431F00000000000DB
:1031F4002F2B00084F2B00086B2B0008872B00088F
:10320400650C0008A50C000800000000D50C00089F
:0C3214009D0D000800000000550D000892
:10322000592C0008232C0008C92B0008F9120008AB
:04323000FD13000882
:1032340040000000010000004430000809000100C3
:103244007C30000805000100FFFF0000001400505E
:10325400050000003400000020000000FFFF000013
:10326400000C0050030000003400000008000000BF
:10327400FFFF0000000800500200000034000000BE
:1032840004000000FFFF00000004005001000000E3
:103294003400000002000000FFFF000000000050A6
:1032A4000000000034000000010000007C30000831
:1032B4006030000844300008283000080000000096
:1032C4000C300008000000000000000000000000B6
:1032D40000000000000000000000000000000000EA
:1032E40000000000000000000000000000000000DA
:1032F40000000000000000000000000000000000CA
:1033040000000000000000000000000000000000B9
:1033140000000000040000200010024000440040AF
:10332400D42F0008F02F000891050000483300084E
:103334000100000000000000000000000000000088
:10334400503300083C00000000000200583300081D
:10335400010000006033000802000000410000008A
:1033640000020000610000000000000000000000F6
:103374000000000000000000000000000000000049
:103384000000000000000000000000000100000038
:10339400020000000300000004000000060000001A
:1033A400070000000800000009000000642F000866
:1033B400642F0008C42F0008CC2F0008D42F000865
:1033C400D42F00080010000000304F4E004F464636
:1033D400004C4544302073746174653A2025730AA7
:1033E400004C4544312073746174653A2025730A96
:1033F400006770696F4035303030313430300067E9
:1034040070696F4035303030306330300067706938
:103414006F403530303030383030006770696F407D
:103424003530303030343030006770696F403530BB
:103434003030303030300072302F61313A2020305B
:103444007825303878202072312F61323A202030AC
:103454007825303878202072322F61333A2020309A
:1034640078253038780A0072332F61343A202030BE
:103474007825303878207231322F69703A20203024
:103484007825303878207231342F6C723A2020300D
:1034940078253038780A0020787073723A2020300A
:1034A40078253038780A004661756C74696E672037
:1034B400696E737472756374696F6E20616464728B
:1034C40065737320287231352F7063293A20307860
:1034D400253038780A00556E68616E646C65642026
:1034E4004952516E3A2025640A005265736572761A
:1034F400656420457863657074696F6E2028005395
:10350400707572696F757320696E74657272757007
:103514007420284952512000535053454C20696E61
:1035240020746872656164206D6F646520646F65E2
:1035340073206E6F7420696E6469636174652050D2
:1035440053500A002A2A2A2A2A2048415244204653
:1035540041554C54202A2A2A2A2A0A004152434817
:103564005F455843455054207769746820726561FB
:10357400736F6E2025780A0A002A2A2A2A2A20250F
:103584007320256429202A2A2A2A2A0A00696E74AB
:103594006572727570742D636F6E74726F6C6C6586
:1035A400724034303032313830300072636340342A
:1035B400303032313030300072657365742D636F92
:1035C4006E74726F6C6C65720073657269616C40C5
:1035D4003430303034343030006D61696E002A2A62
:1035E4002A20426F6F74696E67205A657068797219
:1035F400204F53206275696C642076342E332E304C
:103604002D383733392D676335383537626265367F
:10361400373431202A2A2A0A00286E756C6C290056
:103624002A666C6F61742A00040C02020002000016
:103634007727000800000000A1280008000000000F
:10364400000000001800002000C201000001030077
:10365400001BB700C800000028000020280000203C
:10366400FFFFFFFFFFFFFFFFFFFFFFFFFFFFFFFF66
:103674000000000000000000000000000000000046
:043684000000000042
:0436880015E015E054
:040000050800075197
:00000001FF
